{"contracts/TroopFactory.sol":{"TroopFactory":{"abi":[{"anonymous":false,"inputs":[{"indexed":true,"internalType":"address","name":"previousOwner","type":"address"},{"indexed":true,"internalType":"address","name":"newOwner","type":"address"}],"name":"OwnershipTransferred","type":"event"},{"anonymous":false,"inputs":[{"indexed":false,"internalType":"uint256","name":"_troopLevel","type":"uint256"},{"indexed":false,"internalType":"string","name":"_troopName","type":"string"},{"indexed":false,"internalType":"uint256","name":"_troopHealth","type":"uint256"},{"indexed":false,"internalType":"uint256","name":"_troopStrength","type":"uint256"},{"indexed":false,"internalType":"bool","name":"","type":"bool"}],"name":"newTroop","type":"event"},{"inputs":[],"name":"createInitialTroop","outputs":[],"stateMutability":"nonpayable","type":"function"},{"inputs":[],"name":"isOwner","outputs":[{"internalType":"bool","name":"","type":"bool"}],"stateMutability":"view","type":"function"},{"inputs":[],"name":"owner","outputs":[{"internalType":"address","name":"","type":"address"}],"stateMutability":"view","type":"function"},{"inputs":[],"name":"renounceOwnership","outputs":[],"stateMutability":"nonpayable","type":"function"},{"inputs":[{"internalType":"address","name":"newOwner","type":"address"}],"name":"transferOwnership","outputs":[],"stateMutability":"nonpayable","type":"function"},{"inputs":[{"internalType":"uint256","name":"","type":"uint256"}],"name":"troopToOwner","outputs":[{"internalType":"address","name":"","type":"address"}],"stateMutability":"view","type":"function"},{"inputs":[{"internalType":"uint256","name":"","type":"uint256"}],"name":"troops","outputs":[{"internalType":"string","name":"troopType","type":"string"},{"internalType":"uint256","name":"troopHealth","type":"uint256"},{"internalType":"uint256","name":"troopStrength","type":"uint256"},{"internalType":"uint32","name":"troopLevel","type":"uint32"},{"internalType":"uint32","name":"readyTime","type":"uint32"},{"internalType":"bool","name":"isLevelable","type":"bool"}],"stateMutability":"view","type":"function"}],"evm":{"bytecode":{"linkReferences":{},"object":"60806040526201518060055534801561001757600080fd5b50336000806101000a81548173ffffffffffffffffffffffffffffffffffffffff021916908373ffffffffffffffffffffffffffffffffffffffff16021790555060008054906101000a900473ffffffffffffffffffffffffffffffffffffffff1673ffffffffffffffffffffffffffffffffffffffff16600073ffffffffffffffffffffffffffffffffffffffff167f8be0079c531659141344cd1fd0a4f28419497f9722a3daafe3b4186f6b6457e060405160405180910390a3610de8806100e26000396000f3fe608060405234801561001057600080fd5b506004361061007d5760003560e01c80638da5cb5b1161005b5780638da5cb5b146100cb5780638f32d59b146100e9578063b11830a914610107578063f2fde38b146101375761007d565b80633084497b14610082578063715018a6146100b75780638aaa9f6e146100c1575b600080fd5b61009c60048036038101906100979190610788565b610153565b6040516100ae9695949392919061088e565b60405180910390f35b6100bf610254565b005b6100c9610323565b005b6100d36103b5565b6040516100e09190610937565b60405180910390f35b6100f16103de565b6040516100fe9190610952565b60405180910390f35b610121600480360381019061011c9190610788565b610435565b60405161012e9190610937565b60405180910390f35b610151600480360381019061014c9190610999565b610468565b005b6007818154811061016357600080fd5b9060005260206000209060040201600091509050806000018054610186906109f5565b80601f01602080910402602001604051908101604052809291908181526020018280546101b2906109f5565b80156101ff5780601f106101d4576101008083540402835291602001916101ff565b820191906000526020600020905b8154815290600101906020018083116101e257829003601f168201915b5050505050908060010154908060020154908060030160009054906101000a900463ffffffff16908060030160049054906101000a900463ffffffff16908060030160089054906101000a900460ff16905086565b61025c6103de565b61026557600080fd5b600073ffffffffffffffffffffffffffffffffffffffff1660008054906101000a900473ffffffffffffffffffffffffffffffffffffffff1673ffffffffffffffffffffffffffffffffffffffff167f8be0079c531659141344cd1fd0a4f28419497f9722a3daafe3b4186f6b6457e060405160405180910390a360008060006101000a81548173ffffffffffffffffffffffffffffffffffffffff021916908373ffffffffffffffffffffffffffffffffffffffff160217905550565b6000600960003373ffffffffffffffffffffffffffffffffffffffff1673ffffffffffffffffffffffffffffffffffffffff168152602001908152602001600020541461036f57600080fd5b6103b36040518060400160405280600981526020017f53776f7264736d616e0000000000000000000000000000000000000000000000815250600a80600180610485565b565b60008060009054906101000a900473ffffffffffffffffffffffffffffffffffffffff16905090565b60008060009054906101000a900473ffffffffffffffffffffffffffffffffffffffff1673ffffffffffffffffffffffffffffffffffffffff163373ffffffffffffffffffffffffffffffffffffffff1614905090565b60086020528060005260406000206000915054906101000a900473ffffffffffffffffffffffffffffffffffffffff1681565b6104706103de565b61047957600080fd5b61048281610657565b50565b60076040518060c001604052808781526020018681526020018581526020018463ffffffff168152602001600554426104be9190610a55565b63ffffffff1681526020018315158152509080600181540180825580915050600190039060005260206000209060040201600090919091909150600082015181600001908161050d9190610c64565b50602082015181600101556040820151816002015560608201518160030160006101000a81548163ffffffff021916908363ffffffff16021790555060808201518160030160046101000a81548163ffffffff021916908363ffffffff16021790555060a08201518160030160086101000a81548160ff0219169083151502179055505050600060016007805490506105a69190610d36565b9050336008600083815260200190815260200160002060006101000a81548173ffffffffffffffffffffffffffffffffffffffff021916908373ffffffffffffffffffffffffffffffffffffffff160217905550600960003373ffffffffffffffffffffffffffffffffffffffff1673ffffffffffffffffffffffffffffffffffffffff168152602001908152602001600020600081548092919061064a90610d6a565b9190505550505050505050565b600073ffffffffffffffffffffffffffffffffffffffff168173ffffffffffffffffffffffffffffffffffffffff160361069057600080fd5b8073ffffffffffffffffffffffffffffffffffffffff1660008054906101000a900473ffffffffffffffffffffffffffffffffffffffff1673ffffffffffffffffffffffffffffffffffffffff167f8be0079c531659141344cd1fd0a4f28419497f9722a3daafe3b4186f6b6457e060405160405180910390a3806000806101000a81548173ffffffffffffffffffffffffffffffffffffffff021916908373ffffffffffffffffffffffffffffffffffffffff16021790555050565b600080fd5b6000819050919050565b61076581610752565b811461077057600080fd5b50565b6000813590506107828161075c565b92915050565b60006020828403121561079e5761079d61074d565b5b60006107ac84828501610773565b91505092915050565b600081519050919050565b600082825260208201905092915050565b60005b838110156107ef5780820151818401526020810190506107d4565b60008484015250505050565b6000601f19601f8301169050919050565b6000610817826107b5565b61082181856107c0565b93506108318185602086016107d1565b61083a816107fb565b840191505092915050565b61084e81610752565b82525050565b600063ffffffff82169050919050565b61086d81610854565b82525050565b60008115159050919050565b61088881610873565b82525050565b600060c08201905081810360008301526108a8818961080c565b90506108b76020830188610845565b6108c46040830187610845565b6108d16060830186610864565b6108de6080830185610864565b6108eb60a083018461087f565b979650505050505050565b600073ffffffffffffffffffffffffffffffffffffffff82169050919050565b6000610921826108f6565b9050919050565b61093181610916565b82525050565b600060208201905061094c6000830184610928565b92915050565b6000602082019050610967600083018461087f565b92915050565b61097681610916565b811461098157600080fd5b50565b6000813590506109938161096d565b92915050565b6000602082840312156109af576109ae61074d565b5b60006109bd84828501610984565b91505092915050565b7f4e487b7100000000000000000000000000000000000000000000000000000000600052602260045260246000fd5b60006002820490506001821680610a0d57607f821691505b602082108103610a2057610a1f6109c6565b5b50919050565b7f4e487b7100000000000000000000000000000000000000000000000000000000600052601160045260246000fd5b6000610a6082610752565b9150610a6b83610752565b9250828201905080821115610a8357610a82610a26565b5b92915050565b7f4e487b7100000000000000000000000000000000000000000000000000000000600052604160045260246000fd5b60008190508160005260206000209050919050565b60006020601f8301049050919050565b600082821b905092915050565b600060088302610b1a7fffffffffffffffffffffffffffffffffffffffffffffffffffffffffffffffff82610add565b610b248683610add565b95508019841693508086168417925050509392505050565b6000819050919050565b6000610b61610b5c610b5784610752565b610b3c565b610752565b9050919050565b6000819050919050565b610b7b83610b46565b610b8f610b8782610b68565b848454610aea565b825550505050565b600090565b610ba4610b97565b610baf818484610b72565b505050565b5b81811015610bd357610bc8600082610b9c565b600181019050610bb5565b5050565b601f821115610c1857610be981610ab8565b610bf284610acd565b81016020851015610c01578190505b610c15610c0d85610acd565b830182610bb4565b50505b505050565b600082821c905092915050565b6000610c3b60001984600802610c1d565b1980831691505092915050565b6000610c548383610c2a565b9150826002028217905092915050565b610c6d826107b5565b67ffffffffffffffff811115610c8657610c85610a89565b5b610c9082546109f5565b610c9b828285610bd7565b600060209050601f831160018114610cce5760008415610cbc578287015190505b610cc68582610c48565b865550610d2e565b601f198416610cdc86610ab8565b60005b82811015610d0457848901518255600182019150602085019450602081019050610cdf565b86831015610d215784890151610d1d601f891682610c2a565b8355505b6001600288020188555050505b505050505050565b6000610d4182610752565b9150610d4c83610752565b9250828203905081811115610d6457610d63610a26565b5b92915050565b6000610d7582610752565b91507fffffffffffffffffffffffffffffffffffffffffffffffffffffffffffffffff8203610da757610da6610a26565b5b60018201905091905056fea26469706673582212206cd5334f76f4e8891d9de2d8749888233ddbce07b2d4af4d3e068e08c9fd112b64736f6c63430008130033","opcodes":"PUSH1 0x80 PUSH1 0x40 MSTORE PUSH3 0x15180 PUSH1 0x5 SSTORE CALLVALUE DUP1 ISZERO PUSH2 0x17 JUMPI PUSH1 0x0 DUP1 REVERT JUMPDEST POP CALLER PUSH1 0x0 DUP1 PUSH2 0x100 EXP DUP2 SLOAD DUP2 PUSH20 0xFFFFFFFFFFFFFFFFFFFFFFFFFFFFFFFFFFFFFFFF MUL NOT AND SWAP1 DUP4 PUSH20 0xFFFFFFFFFFFFFFFFFFFFFFFFFFFFFFFFFFFFFFFF AND MUL OR SWAP1 SSTORE POP PUSH1 0x0 DUP1 SLOAD SWAP1 PUSH2 0x100 EXP SWAP1 DIV PUSH20 0xFFFFFFFFFFFFFFFFFFFFFFFFFFFFFFFFFFFFFFFF AND PUSH20 0xFFFFFFFFFFFFFFFFFFFFFFFFFFFFFFFFFFFFFFFF AND PUSH1 0x0 PUSH20 0xFFFFFFFFFFFFFFFFFFFFFFFFFFFFFFFFFFFFFFFF AND PUSH32 0x8BE0079C531659141344CD1FD0A4F28419497F9722A3DAAFE3B4186F6B6457E0 PUSH1 0x40 MLOAD PUSH1 0x40 MLOAD DUP1 SWAP2 SUB SWAP1 LOG3 PUSH2 0xDE8 DUP1 PUSH2 0xE2 PUSH1 0x0 CODECOPY PUSH1 0x0 RETURN INVALID PUSH1 0x80 PUSH1 0x40 MSTORE CALLVALUE DUP1 ISZERO PUSH2 0x10 JUMPI PUSH1 0x0 DUP1 REVERT JUMPDEST POP PUSH1 0x4 CALLDATASIZE LT PUSH2 0x7D JUMPI PUSH1 0x0 CALLDATALOAD PUSH1 0xE0 SHR DUP1 PUSH4 0x8DA5CB5B GT PUSH2 0x5B JUMPI DUP1 PUSH4 0x8DA5CB5B EQ PUSH2 0xCB JUMPI DUP1 PUSH4 0x8F32D59B EQ PUSH2 0xE9 JUMPI DUP1 PUSH4 0xB11830A9 EQ PUSH2 0x107 JUMPI DUP1 PUSH4 0xF2FDE38B EQ PUSH2 0x137 JUMPI PUSH2 0x7D JUMP JUMPDEST DUP1 PUSH4 0x3084497B EQ PUSH2 0x82 JUMPI DUP1 PUSH4 0x715018A6 EQ PUSH2 0xB7 JUMPI DUP1 PUSH4 0x8AAA9F6E EQ PUSH2 0xC1 JUMPI JUMPDEST PUSH1 0x0 DUP1 REVERT JUMPDEST PUSH2 0x9C PUSH1 0x4 DUP1 CALLDATASIZE SUB DUP2 ADD SWAP1 PUSH2 0x97 SWAP2 SWAP1 PUSH2 0x788 JUMP JUMPDEST PUSH2 0x153 JUMP JUMPDEST PUSH1 0x40 MLOAD PUSH2 0xAE SWAP7 SWAP6 SWAP5 SWAP4 SWAP3 SWAP2 SWAP1 PUSH2 0x88E JUMP JUMPDEST PUSH1 0x40 MLOAD DUP1 SWAP2 SUB SWAP1 RETURN JUMPDEST PUSH2 0xBF PUSH2 0x254 JUMP JUMPDEST STOP JUMPDEST PUSH2 0xC9 PUSH2 0x323 JUMP JUMPDEST STOP JUMPDEST PUSH2 0xD3 PUSH2 0x3B5 JUMP JUMPDEST PUSH1 0x40 MLOAD PUSH2 0xE0 SWAP2 SWAP1 PUSH2 0x937 JUMP JUMPDEST PUSH1 0x40 MLOAD DUP1 SWAP2 SUB SWAP1 RETURN JUMPDEST PUSH2 0xF1 PUSH2 0x3DE JUMP JUMPDEST PUSH1 0x40 MLOAD PUSH2 0xFE SWAP2 SWAP1 PUSH2 0x952 JUMP JUMPDEST PUSH1 0x40 MLOAD DUP1 SWAP2 SUB SWAP1 RETURN JUMPDEST PUSH2 0x121 PUSH1 0x4 DUP1 CALLDATASIZE SUB DUP2 ADD SWAP1 PUSH2 0x11C SWAP2 SWAP1 PUSH2 0x788 JUMP JUMPDEST PUSH2 0x435 JUMP JUMPDEST PUSH1 0x40 MLOAD PUSH2 0x12E SWAP2 SWAP1 PUSH2 0x937 JUMP JUMPDEST PUSH1 0x40 MLOAD DUP1 SWAP2 SUB SWAP1 RETURN JUMPDEST PUSH2 0x151 PUSH1 0x4 DUP1 CALLDATASIZE SUB DUP2 ADD SWAP1 PUSH2 0x14C SWAP2 SWAP1 PUSH2 0x999 JUMP JUMPDEST PUSH2 0x468 JUMP JUMPDEST STOP JUMPDEST PUSH1 0x7 DUP2 DUP2 SLOAD DUP2 LT PUSH2 0x163 JUMPI PUSH1 0x0 DUP1 REVERT JUMPDEST SWAP1 PUSH1 0x0 MSTORE PUSH1 0x20 PUSH1 0x0 KECCAK256 SWAP1 PUSH1 0x4 MUL ADD PUSH1 0x0 SWAP2 POP SWAP1 POP DUP1 PUSH1 0x0 ADD DUP1 SLOAD PUSH2 0x186 SWAP1 PUSH2 0x9F5 JUMP JUMPDEST DUP1 PUSH1 0x1F ADD PUSH1 0x20 DUP1 SWAP2 DIV MUL PUSH1 0x20 ADD PUSH1 0x40 MLOAD SWAP1 DUP2 ADD PUSH1 0x40 MSTORE DUP1 SWAP3 SWAP2 SWAP1 DUP2 DUP2 MSTORE PUSH1 0x20 ADD DUP3 DUP1 SLOAD PUSH2 0x1B2 SWAP1 PUSH2 0x9F5 JUMP JUMPDEST DUP1 ISZERO PUSH2 0x1FF JUMPI DUP1 PUSH1 0x1F LT PUSH2 0x1D4 JUMPI PUSH2 0x100 DUP1 DUP4 SLOAD DIV MUL DUP4 MSTORE SWAP2 PUSH1 0x20 ADD SWAP2 PUSH2 0x1FF JUMP JUMPDEST DUP3 ADD SWAP2 SWAP1 PUSH1 0x0 MSTORE PUSH1 0x20 PUSH1 0x0 KECCAK256 SWAP1 JUMPDEST DUP2 SLOAD DUP2 MSTORE SWAP1 PUSH1 0x1 ADD SWAP1 PUSH1 0x20 ADD DUP1 DUP4 GT PUSH2 0x1E2 JUMPI DUP3 SWAP1 SUB PUSH1 0x1F AND DUP3 ADD SWAP2 JUMPDEST POP POP POP POP POP SWAP1 DUP1 PUSH1 0x1 ADD SLOAD SWAP1 DUP1 PUSH1 0x2 ADD SLOAD SWAP1 DUP1 PUSH1 0x3 ADD PUSH1 0x0 SWAP1 SLOAD SWAP1 PUSH2 0x100 EXP SWAP1 DIV PUSH4 0xFFFFFFFF AND SWAP1 DUP1 PUSH1 0x3 ADD PUSH1 0x4 SWAP1 SLOAD SWAP1 PUSH2 0x100 EXP SWAP1 DIV PUSH4 0xFFFFFFFF AND SWAP1 DUP1 PUSH1 0x3 ADD PUSH1 0x8 SWAP1 SLOAD SWAP1 PUSH2 0x100 EXP SWAP1 DIV PUSH1 0xFF AND SWAP1 POP DUP7 JUMP JUMPDEST PUSH2 0x25C PUSH2 0x3DE JUMP JUMPDEST PUSH2 0x265 JUMPI PUSH1 0x0 DUP1 REVERT JUMPDEST PUSH1 0x0 PUSH20 0xFFFFFFFFFFFFFFFFFFFFFFFFFFFFFFFFFFFFFFFF AND PUSH1 0x0 DUP1 SLOAD SWAP1 PUSH2 0x100 EXP SWAP1 DIV PUSH20 0xFFFFFFFFFFFFFFFFFFFFFFFFFFFFFFFFFFFFFFFF AND PUSH20 0xFFFFFFFFFFFFFFFFFFFFFFFFFFFFFFFFFFFFFFFF AND PUSH32 0x8BE0079C531659141344CD1FD0A4F28419497F9722A3DAAFE3B4186F6B6457E0 PUSH1 0x40 MLOAD PUSH1 0x40 MLOAD DUP1 SWAP2 SUB SWAP1 LOG3 PUSH1 0x0 DUP1 PUSH1 0x0 PUSH2 0x100 EXP DUP2 SLOAD DUP2 PUSH20 0xFFFFFFFFFFFFFFFFFFFFFFFFFFFFFFFFFFFFFFFF MUL NOT AND SWAP1 DUP4 PUSH20 0xFFFFFFFFFFFFFFFFFFFFFFFFFFFFFFFFFFFFFFFF AND MUL OR SWAP1 SSTORE POP JUMP JUMPDEST PUSH1 0x0 PUSH1 0x9 PUSH1 0x0 CALLER PUSH20 0xFFFFFFFFFFFFFFFFFFFFFFFFFFFFFFFFFFFFFFFF AND PUSH20 0xFFFFFFFFFFFFFFFFFFFFFFFFFFFFFFFFFFFFFFFF AND DUP2 MSTORE PUSH1 0x20 ADD SWAP1 DUP2 MSTORE PUSH1 0x20 ADD PUSH1 0x0 KECCAK256 SLOAD EQ PUSH2 0x36F JUMPI PUSH1 0x0 DUP1 REVERT JUMPDEST PUSH2 0x3B3 PUSH1 0x40 MLOAD DUP1 PUSH1 0x40 ADD PUSH1 0x40 MSTORE DUP1 PUSH1 0x9 DUP2 MSTORE PUSH1 0x20 ADD PUSH32 0x53776F7264736D616E0000000000000000000000000000000000000000000000 DUP2 MSTORE POP PUSH1 0xA DUP1 PUSH1 0x1 DUP1 PUSH2 0x485 JUMP JUMPDEST JUMP JUMPDEST PUSH1 0x0 DUP1 PUSH1 0x0 SWAP1 SLOAD SWAP1 PUSH2 0x100 EXP SWAP1 DIV PUSH20 0xFFFFFFFFFFFFFFFFFFFFFFFFFFFFFFFFFFFFFFFF AND SWAP1 POP SWAP1 JUMP JUMPDEST PUSH1 0x0 DUP1 PUSH1 0x0 SWAP1 SLOAD SWAP1 PUSH2 0x100 EXP SWAP1 DIV PUSH20 0xFFFFFFFFFFFFFFFFFFFFFFFFFFFFFFFFFFFFFFFF AND PUSH20 0xFFFFFFFFFFFFFFFFFFFFFFFFFFFFFFFFFFFFFFFF AND CALLER PUSH20 0xFFFFFFFFFFFFFFFFFFFFFFFFFFFFFFFFFFFFFFFF AND EQ SWAP1 POP SWAP1 JUMP JUMPDEST PUSH1 0x8 PUSH1 0x20 MSTORE DUP1 PUSH1 0x0 MSTORE PUSH1 0x40 PUSH1 0x0 KECCAK256 PUSH1 0x0 SWAP2 POP SLOAD SWAP1 PUSH2 0x100 EXP SWAP1 DIV PUSH20 0xFFFFFFFFFFFFFFFFFFFFFFFFFFFFFFFFFFFFFFFF AND DUP2 JUMP JUMPDEST PUSH2 0x470 PUSH2 0x3DE JUMP JUMPDEST PUSH2 0x479 JUMPI PUSH1 0x0 DUP1 REVERT JUMPDEST PUSH2 0x482 DUP2 PUSH2 0x657 JUMP JUMPDEST POP JUMP JUMPDEST PUSH1 0x7 PUSH1 0x40 MLOAD DUP1 PUSH1 0xC0 ADD PUSH1 0x40 MSTORE DUP1 DUP8 DUP2 MSTORE PUSH1 0x20 ADD DUP7 DUP2 MSTORE PUSH1 0x20 ADD DUP6 DUP2 MSTORE PUSH1 0x20 ADD DUP5 PUSH4 0xFFFFFFFF AND DUP2 MSTORE PUSH1 0x20 ADD PUSH1 0x5 SLOAD TIMESTAMP PUSH2 0x4BE SWAP2 SWAP1 PUSH2 0xA55 JUMP JUMPDEST PUSH4 0xFFFFFFFF AND DUP2 MSTORE PUSH1 0x20 ADD DUP4 ISZERO ISZERO DUP2 MSTORE POP SWAP1 DUP1 PUSH1 0x1 DUP2 SLOAD ADD DUP1 DUP3 SSTORE DUP1 SWAP2 POP POP PUSH1 0x1 SWAP1 SUB SWAP1 PUSH1 0x0 MSTORE PUSH1 0x20 PUSH1 0x0 KECCAK256 SWAP1 PUSH1 0x4 MUL ADD PUSH1 0x0 SWAP1 SWAP2 SWAP1 SWAP2 SWAP1 SWAP2 POP PUSH1 0x0 DUP3 ADD MLOAD DUP2 PUSH1 0x0 ADD SWAP1 DUP2 PUSH2 0x50D SWAP2 SWAP1 PUSH2 0xC64 JUMP JUMPDEST POP PUSH1 0x20 DUP3 ADD MLOAD DUP2 PUSH1 0x1 ADD SSTORE PUSH1 0x40 DUP3 ADD MLOAD DUP2 PUSH1 0x2 ADD SSTORE PUSH1 0x60 DUP3 ADD MLOAD DUP2 PUSH1 0x3 ADD PUSH1 0x0 PUSH2 0x100 EXP DUP2 SLOAD DUP2 PUSH4 0xFFFFFFFF MUL NOT AND SWAP1 DUP4 PUSH4 0xFFFFFFFF AND MUL OR SWAP1 SSTORE POP PUSH1 0x80 DUP3 ADD MLOAD DUP2 PUSH1 0x3 ADD PUSH1 0x4 PUSH2 0x100 EXP DUP2 SLOAD DUP2 PUSH4 0xFFFFFFFF MUL NOT AND SWAP1 DUP4 PUSH4 0xFFFFFFFF AND MUL OR SWAP1 SSTORE POP PUSH1 0xA0 DUP3 ADD MLOAD DUP2 PUSH1 0x3 ADD PUSH1 0x8 PUSH2 0x100 EXP DUP2 SLOAD DUP2 PUSH1 0xFF MUL NOT AND SWAP1 DUP4 ISZERO ISZERO MUL OR SWAP1 SSTORE POP POP POP PUSH1 0x0 PUSH1 0x1 PUSH1 0x7 DUP1 SLOAD SWAP1 POP PUSH2 0x5A6 SWAP2 SWAP1 PUSH2 0xD36 JUMP JUMPDEST SWAP1 POP CALLER PUSH1 0x8 PUSH1 0x0 DUP4 DUP2 MSTORE PUSH1 0x20 ADD SWAP1 DUP2 MSTORE PUSH1 0x20 ADD PUSH1 0x0 KECCAK256 PUSH1 0x0 PUSH2 0x100 EXP DUP2 SLOAD DUP2 PUSH20 0xFFFFFFFFFFFFFFFFFFFFFFFFFFFFFFFFFFFFFFFF MUL NOT AND SWAP1 DUP4 PUSH20 0xFFFFFFFFFFFFFFFFFFFFFFFFFFFFFFFFFFFFFFFF AND MUL OR SWAP1 SSTORE POP PUSH1 0x9 PUSH1 0x0 CALLER PUSH20 0xFFFFFFFFFFFFFFFFFFFFFFFFFFFFFFFFFFFFFFFF AND PUSH20 0xFFFFFFFFFFFFFFFFFFFFFFFFFFFFFFFFFFFFFFFF AND DUP2 MSTORE PUSH1 0x20 ADD SWAP1 DUP2 MSTORE PUSH1 0x20 ADD PUSH1 0x0 KECCAK256 PUSH1 0x0 DUP2 SLOAD DUP1 SWAP3 SWAP2 SWAP1 PUSH2 0x64A SWAP1 PUSH2 0xD6A JUMP JUMPDEST SWAP2 SWAP1 POP SSTORE POP POP POP POP POP POP POP JUMP JUMPDEST PUSH1 0x0 PUSH20 0xFFFFFFFFFFFFFFFFFFFFFFFFFFFFFFFFFFFFFFFF AND DUP2 PUSH20 0xFFFFFFFFFFFFFFFFFFFFFFFFFFFFFFFFFFFFFFFF AND SUB PUSH2 0x690 JUMPI PUSH1 0x0 DUP1 REVERT JUMPDEST DUP1 PUSH20 0xFFFFFFFFFFFFFFFFFFFFFFFFFFFFFFFFFFFFFFFF AND PUSH1 0x0 DUP1 SLOAD SWAP1 PUSH2 0x100 EXP SWAP1 DIV PUSH20 0xFFFFFFFFFFFFFFFFFFFFFFFFFFFFFFFFFFFFFFFF AND PUSH20 0xFFFFFFFFFFFFFFFFFFFFFFFFFFFFFFFFFFFFFFFF AND PUSH32 0x8BE0079C531659141344CD1FD0A4F28419497F9722A3DAAFE3B4186F6B6457E0 PUSH1 0x40 MLOAD PUSH1 0x40 MLOAD DUP1 SWAP2 SUB SWAP1 LOG3 DUP1 PUSH1 0x0 DUP1 PUSH2 0x100 EXP DUP2 SLOAD DUP2 PUSH20 0xFFFFFFFFFFFFFFFFFFFFFFFFFFFFFFFFFFFFFFFF MUL NOT AND SWAP1 DUP4 PUSH20 0xFFFFFFFFFFFFFFFFFFFFFFFFFFFFFFFFFFFFFFFF AND MUL OR SWAP1 SSTORE POP POP JUMP JUMPDEST PUSH1 0x0 DUP1 REVERT JUMPDEST PUSH1 0x0 DUP2 SWAP1 POP SWAP2 SWAP1 POP JUMP JUMPDEST PUSH2 0x765 DUP2 PUSH2 0x752 JUMP JUMPDEST DUP2 EQ PUSH2 0x770 JUMPI PUSH1 0x0 DUP1 REVERT JUMPDEST POP JUMP JUMPDEST PUSH1 0x0 DUP2 CALLDATALOAD SWAP1 POP PUSH2 0x782 DUP2 PUSH2 0x75C JUMP JUMPDEST SWAP3 SWAP2 POP POP JUMP JUMPDEST PUSH1 0x0 PUSH1 0x20 DUP3 DUP5 SUB SLT ISZERO PUSH2 0x79E JUMPI PUSH2 0x79D PUSH2 0x74D JUMP JUMPDEST JUMPDEST PUSH1 0x0 PUSH2 0x7AC DUP5 DUP3 DUP6 ADD PUSH2 0x773 JUMP JUMPDEST SWAP2 POP POP SWAP3 SWAP2 POP POP JUMP JUMPDEST PUSH1 0x0 DUP2 MLOAD SWAP1 POP SWAP2 SWAP1 POP JUMP JUMPDEST PUSH1 0x0 DUP3 DUP3 MSTORE PUSH1 0x20 DUP3 ADD SWAP1 POP SWAP3 SWAP2 POP POP JUMP JUMPDEST PUSH1 0x0 JUMPDEST DUP4 DUP2 LT ISZERO PUSH2 0x7EF JUMPI DUP1 DUP3 ADD MLOAD DUP2 DUP5 ADD MSTORE PUSH1 0x20 DUP2 ADD SWAP1 POP PUSH2 0x7D4 JUMP JUMPDEST PUSH1 0x0 DUP5 DUP5 ADD MSTORE POP POP POP POP JUMP JUMPDEST PUSH1 0x0 PUSH1 0x1F NOT PUSH1 0x1F DUP4 ADD AND SWAP1 POP SWAP2 SWAP1 POP JUMP JUMPDEST PUSH1 0x0 PUSH2 0x817 DUP3 PUSH2 0x7B5 JUMP JUMPDEST PUSH2 0x821 DUP2 DUP6 PUSH2 0x7C0 JUMP JUMPDEST SWAP4 POP PUSH2 0x831 DUP2 DUP6 PUSH1 0x20 DUP7 ADD PUSH2 0x7D1 JUMP JUMPDEST PUSH2 0x83A DUP2 PUSH2 0x7FB JUMP JUMPDEST DUP5 ADD SWAP2 POP POP SWAP3 SWAP2 POP POP JUMP JUMPDEST PUSH2 0x84E DUP2 PUSH2 0x752 JUMP JUMPDEST DUP3 MSTORE POP POP JUMP JUMPDEST PUSH1 0x0 PUSH4 0xFFFFFFFF DUP3 AND SWAP1 POP SWAP2 SWAP1 POP JUMP JUMPDEST PUSH2 0x86D DUP2 PUSH2 0x854 JUMP JUMPDEST DUP3 MSTORE POP POP JUMP JUMPDEST PUSH1 0x0 DUP2 ISZERO ISZERO SWAP1 POP SWAP2 SWAP1 POP JUMP JUMPDEST PUSH2 0x888 DUP2 PUSH2 0x873 JUMP JUMPDEST DUP3 MSTORE POP POP JUMP JUMPDEST PUSH1 0x0 PUSH1 0xC0 DUP3 ADD SWAP1 POP DUP2 DUP2 SUB PUSH1 0x0 DUP4 ADD MSTORE PUSH2 0x8A8 DUP2 DUP10 PUSH2 0x80C JUMP JUMPDEST SWAP1 POP PUSH2 0x8B7 PUSH1 0x20 DUP4 ADD DUP9 PUSH2 0x845 JUMP JUMPDEST PUSH2 0x8C4 PUSH1 0x40 DUP4 ADD DUP8 PUSH2 0x845 JUMP JUMPDEST PUSH2 0x8D1 PUSH1 0x60 DUP4 ADD DUP7 PUSH2 0x864 JUMP JUMPDEST PUSH2 0x8DE PUSH1 0x80 DUP4 ADD DUP6 PUSH2 0x864 JUMP JUMPDEST PUSH2 0x8EB PUSH1 0xA0 DUP4 ADD DUP5 PUSH2 0x87F JUMP JUMPDEST SWAP8 SWAP7 POP POP POP POP POP POP POP JUMP JUMPDEST PUSH1 0x0 PUSH20 0xFFFFFFFFFFFFFFFFFFFFFFFFFFFFFFFFFFFFFFFF DUP3 AND SWAP1 POP SWAP2 SWAP1 POP JUMP JUMPDEST PUSH1 0x0 PUSH2 0x921 DUP3 PUSH2 0x8F6 JUMP JUMPDEST SWAP1 POP SWAP2 SWAP1 POP JUMP JUMPDEST PUSH2 0x931 DUP2 PUSH2 0x916 JUMP JUMPDEST DUP3 MSTORE POP POP JUMP JUMPDEST PUSH1 0x0 PUSH1 0x20 DUP3 ADD SWAP1 POP PUSH2 0x94C PUSH1 0x0 DUP4 ADD DUP5 PUSH2 0x928 JUMP JUMPDEST SWAP3 SWAP2 POP POP JUMP JUMPDEST PUSH1 0x0 PUSH1 0x20 DUP3 ADD SWAP1 POP PUSH2 0x967 PUSH1 0x0 DUP4 ADD DUP5 PUSH2 0x87F JUMP JUMPDEST SWAP3 SWAP2 POP POP JUMP JUMPDEST PUSH2 0x976 DUP2 PUSH2 0x916 JUMP JUMPDEST DUP2 EQ PUSH2 0x981 JUMPI PUSH1 0x0 DUP1 REVERT JUMPDEST POP JUMP JUMPDEST PUSH1 0x0 DUP2 CALLDATALOAD SWAP1 POP PUSH2 0x993 DUP2 PUSH2 0x96D JUMP JUMPDEST SWAP3 SWAP2 POP POP JUMP JUMPDEST PUSH1 0x0 PUSH1 0x20 DUP3 DUP5 SUB SLT ISZERO PUSH2 0x9AF JUMPI PUSH2 0x9AE PUSH2 0x74D JUMP JUMPDEST JUMPDEST PUSH1 0x0 PUSH2 0x9BD DUP5 DUP3 DUP6 ADD PUSH2 0x984 JUMP JUMPDEST SWAP2 POP POP SWAP3 SWAP2 POP POP JUMP JUMPDEST PUSH32 0x4E487B7100000000000000000000000000000000000000000000000000000000 PUSH1 0x0 MSTORE PUSH1 0x22 PUSH1 0x4 MSTORE PUSH1 0x24 PUSH1 0x0 REVERT JUMPDEST PUSH1 0x0 PUSH1 0x2 DUP3 DIV SWAP1 POP PUSH1 0x1 DUP3 AND DUP1 PUSH2 0xA0D JUMPI PUSH1 0x7F DUP3 AND SWAP2 POP JUMPDEST PUSH1 0x20 DUP3 LT DUP2 SUB PUSH2 0xA20 JUMPI PUSH2 0xA1F PUSH2 0x9C6 JUMP JUMPDEST JUMPDEST POP SWAP2 SWAP1 POP JUMP JUMPDEST PUSH32 0x4E487B7100000000000000000000000000000000000000000000000000000000 PUSH1 0x0 MSTORE PUSH1 0x11 PUSH1 0x4 MSTORE PUSH1 0x24 PUSH1 0x0 REVERT JUMPDEST PUSH1 0x0 PUSH2 0xA60 DUP3 PUSH2 0x752 JUMP JUMPDEST SWAP2 POP PUSH2 0xA6B DUP4 PUSH2 0x752 JUMP JUMPDEST SWAP3 POP DUP3 DUP3 ADD SWAP1 POP DUP1 DUP3 GT ISZERO PUSH2 0xA83 JUMPI PUSH2 0xA82 PUSH2 0xA26 JUMP JUMPDEST JUMPDEST SWAP3 SWAP2 POP POP JUMP JUMPDEST PUSH32 0x4E487B7100000000000000000000000000000000000000000000000000000000 PUSH1 0x0 MSTORE PUSH1 0x41 PUSH1 0x4 MSTORE PUSH1 0x24 PUSH1 0x0 REVERT JUMPDEST PUSH1 0x0 DUP2 SWAP1 POP DUP2 PUSH1 0x0 MSTORE PUSH1 0x20 PUSH1 0x0 KECCAK256 SWAP1 POP SWAP2 SWAP1 POP JUMP JUMPDEST PUSH1 0x0 PUSH1 0x20 PUSH1 0x1F DUP4 ADD DIV SWAP1 POP SWAP2 SWAP1 POP JUMP JUMPDEST PUSH1 0x0 DUP3 DUP3 SHL SWAP1 POP SWAP3 SWAP2 POP POP JUMP JUMPDEST PUSH1 0x0 PUSH1 0x8 DUP4 MUL PUSH2 0xB1A PUSH32 0xFFFFFFFFFFFFFFFFFFFFFFFFFFFFFFFFFFFFFFFFFFFFFFFFFFFFFFFFFFFFFFFF DUP3 PUSH2 0xADD JUMP JUMPDEST PUSH2 0xB24 DUP7 DUP4 PUSH2 0xADD JUMP JUMPDEST SWAP6 POP DUP1 NOT DUP5 AND SWAP4 POP DUP1 DUP7 AND DUP5 OR SWAP3 POP POP POP SWAP4 SWAP3 POP POP POP JUMP JUMPDEST PUSH1 0x0 DUP2 SWAP1 POP SWAP2 SWAP1 POP JUMP JUMPDEST PUSH1 0x0 PUSH2 0xB61 PUSH2 0xB5C PUSH2 0xB57 DUP5 PUSH2 0x752 JUMP JUMPDEST PUSH2 0xB3C JUMP JUMPDEST PUSH2 0x752 JUMP JUMPDEST SWAP1 POP SWAP2 SWAP1 POP JUMP JUMPDEST PUSH1 0x0 DUP2 SWAP1 POP SWAP2 SWAP1 POP JUMP JUMPDEST PUSH2 0xB7B DUP4 PUSH2 0xB46 JUMP JUMPDEST PUSH2 0xB8F PUSH2 0xB87 DUP3 PUSH2 0xB68 JUMP JUMPDEST DUP5 DUP5 SLOAD PUSH2 0xAEA JUMP JUMPDEST DUP3 SSTORE POP POP POP POP JUMP JUMPDEST PUSH1 0x0 SWAP1 JUMP JUMPDEST PUSH2 0xBA4 PUSH2 0xB97 JUMP JUMPDEST PUSH2 0xBAF DUP2 DUP5 DUP5 PUSH2 0xB72 JUMP JUMPDEST POP POP POP JUMP JUMPDEST JUMPDEST DUP2 DUP2 LT ISZERO PUSH2 0xBD3 JUMPI PUSH2 0xBC8 PUSH1 0x0 DUP3 PUSH2 0xB9C JUMP JUMPDEST PUSH1 0x1 DUP2 ADD SWAP1 POP PUSH2 0xBB5 JUMP JUMPDEST POP POP JUMP JUMPDEST PUSH1 0x1F DUP3 GT ISZERO PUSH2 0xC18 JUMPI PUSH2 0xBE9 DUP2 PUSH2 0xAB8 JUMP JUMPDEST PUSH2 0xBF2 DUP5 PUSH2 0xACD JUMP JUMPDEST DUP2 ADD PUSH1 0x20 DUP6 LT ISZERO PUSH2 0xC01 JUMPI DUP2 SWAP1 POP JUMPDEST PUSH2 0xC15 PUSH2 0xC0D DUP6 PUSH2 0xACD JUMP JUMPDEST DUP4 ADD DUP3 PUSH2 0xBB4 JUMP JUMPDEST POP POP JUMPDEST POP POP POP JUMP JUMPDEST PUSH1 0x0 DUP3 DUP3 SHR SWAP1 POP SWAP3 SWAP2 POP POP JUMP JUMPDEST PUSH1 0x0 PUSH2 0xC3B PUSH1 0x0 NOT DUP5 PUSH1 0x8 MUL PUSH2 0xC1D JUMP JUMPDEST NOT DUP1 DUP4 AND SWAP2 POP POP SWAP3 SWAP2 POP POP JUMP JUMPDEST PUSH1 0x0 PUSH2 0xC54 DUP4 DUP4 PUSH2 0xC2A JUMP JUMPDEST SWAP2 POP DUP3 PUSH1 0x2 MUL DUP3 OR SWAP1 POP SWAP3 SWAP2 POP POP JUMP JUMPDEST PUSH2 0xC6D DUP3 PUSH2 0x7B5 JUMP JUMPDEST PUSH8 0xFFFFFFFFFFFFFFFF DUP2 GT ISZERO PUSH2 0xC86 JUMPI PUSH2 0xC85 PUSH2 0xA89 JUMP JUMPDEST JUMPDEST PUSH2 0xC90 DUP3 SLOAD PUSH2 0x9F5 JUMP JUMPDEST PUSH2 0xC9B DUP3 DUP3 DUP6 PUSH2 0xBD7 JUMP JUMPDEST PUSH1 0x0 PUSH1 0x20 SWAP1 POP PUSH1 0x1F DUP4 GT PUSH1 0x1 DUP2 EQ PUSH2 0xCCE JUMPI PUSH1 0x0 DUP5 ISZERO PUSH2 0xCBC JUMPI DUP3 DUP8 ADD MLOAD SWAP1 POP JUMPDEST PUSH2 0xCC6 DUP6 DUP3 PUSH2 0xC48 JUMP JUMPDEST DUP7 SSTORE POP PUSH2 0xD2E JUMP JUMPDEST PUSH1 0x1F NOT DUP5 AND PUSH2 0xCDC DUP7 PUSH2 0xAB8 JUMP JUMPDEST PUSH1 0x0 JUMPDEST DUP3 DUP2 LT ISZERO PUSH2 0xD04 JUMPI DUP5 DUP10 ADD MLOAD DUP3 SSTORE PUSH1 0x1 DUP3 ADD SWAP2 POP PUSH1 0x20 DUP6 ADD SWAP5 POP PUSH1 0x20 DUP2 ADD SWAP1 POP PUSH2 0xCDF JUMP JUMPDEST DUP7 DUP4 LT ISZERO PUSH2 0xD21 JUMPI DUP5 DUP10 ADD MLOAD PUSH2 0xD1D PUSH1 0x1F DUP10 AND DUP3 PUSH2 0xC2A JUMP JUMPDEST DUP4 SSTORE POP JUMPDEST PUSH1 0x1 PUSH1 0x2 DUP9 MUL ADD DUP9 SSTORE POP POP POP JUMPDEST POP POP POP POP POP POP JUMP JUMPDEST PUSH1 0x0 PUSH2 0xD41 DUP3 PUSH2 0x752 JUMP JUMPDEST SWAP2 POP PUSH2 0xD4C DUP4 PUSH2 0x752 JUMP JUMPDEST SWAP3 POP DUP3 DUP3 SUB SWAP1 POP DUP2 DUP2 GT ISZERO PUSH2 0xD64 JUMPI PUSH2 0xD63 PUSH2 0xA26 JUMP JUMPDEST JUMPDEST SWAP3 SWAP2 POP POP JUMP JUMPDEST PUSH1 0x0 PUSH2 0xD75 DUP3 PUSH2 0x752 JUMP JUMPDEST SWAP2 POP PUSH32 0xFFFFFFFFFFFFFFFFFFFFFFFFFFFFFFFFFFFFFFFFFFFFFFFFFFFFFFFFFFFFFFFF DUP3 SUB PUSH2 0xDA7 JUMPI PUSH2 0xDA6 PUSH2 0xA26 JUMP JUMPDEST JUMPDEST PUSH1 0x1 DUP3 ADD SWAP1 POP SWAP2 SWAP1 POP JUMP INVALID LOG2 PUSH5 0x6970667358 0x22 SLT KECCAK256 PUSH13 0xD5334F76F4E8891D9DE2D87498 DUP9 0x23 RETURNDATASIZE 0xDB 0xCE SMOD 0xB2 0xD4 0xAF 0x4D RETURNDATACOPY MOD DUP15 ADDMOD 0xC9 REVERT GT 0x2B PUSH5 0x736F6C6343 STOP ADDMOD SGT STOP CALLER "},"methodIdentifiers":{"createInitialTroop()":"8aaa9f6e","isOwner()":"8f32d59b","owner()":"8da5cb5b","renounceOwnership()":"715018a6","transferOwnership(address)":"f2fde38b","troopToOwner(uint256)":"b11830a9","troops(uint256)":"3084497b"}}}}}