{
  "_format": "hh-sol-artifact-1",
  "contractName": "TroopAttack",
  "sourceName": "contracts/TroopAttack.sol",
  "abi": [
    {
      "anonymous": false,
      "inputs": [
        {
          "indexed": true,
          "internalType": "address",
          "name": "previousOwner",
          "type": "address"
        },
        {
          "indexed": true,
          "internalType": "address",
          "name": "newOwner",
          "type": "address"
        }
      ],
      "name": "OwnershipTransferred",
      "type": "event"
    },
    {
      "anonymous": false,
      "inputs": [
        {
          "indexed": false,
          "internalType": "uint256",
          "name": "_troopLevel",
          "type": "uint256"
        },
        {
          "indexed": false,
          "internalType": "string",
          "name": "_troopName",
          "type": "string"
        },
        {
          "indexed": false,
          "internalType": "uint256",
          "name": "_troopHealth",
          "type": "uint256"
        },
        {
          "indexed": false,
          "internalType": "uint256",
          "name": "_troopStrength",
          "type": "uint256"
        },
        {
          "indexed": false,
          "internalType": "bool",
          "name": "",
          "type": "bool"
        }
      ],
      "name": "newTroop",
      "type": "event"
    },
    {
      "inputs": [],
      "name": "createInitialTroop",
      "outputs": [],
      "stateMutability": "nonpayable",
      "type": "function"
    },
    {
      "inputs": [
        {
          "internalType": "address",
          "name": "_owner",
          "type": "address"
        }
      ],
      "name": "getTroopsByOwner",
      "outputs": [
        {
          "internalType": "uint256[]",
          "name": "",
          "type": "uint256[]"
        }
      ],
      "stateMutability": "view",
      "type": "function"
    },
    {
      "inputs": [],
      "name": "isOwner",
      "outputs": [
        {
          "internalType": "bool",
          "name": "",
          "type": "bool"
        }
      ],
      "stateMutability": "view",
      "type": "function"
    },
    {
      "inputs": [
        {
          "internalType": "uint256",
          "name": "_troopId",
          "type": "uint256"
        }
      ],
      "name": "levelUp",
      "outputs": [],
      "stateMutability": "payable",
      "type": "function"
    },
    {
      "inputs": [],
      "name": "owner",
      "outputs": [
        {
          "internalType": "address",
          "name": "",
          "type": "address"
        }
      ],
      "stateMutability": "view",
      "type": "function"
    },
    {
      "inputs": [],
      "name": "renounceOwnership",
      "outputs": [],
      "stateMutability": "nonpayable",
      "type": "function"
    },
    {
      "inputs": [
        {
          "internalType": "uint256",
          "name": "_fee",
          "type": "uint256"
        }
      ],
      "name": "setLevelUpFee",
      "outputs": [],
      "stateMutability": "nonpayable",
      "type": "function"
    },
    {
      "inputs": [
        {
          "internalType": "address",
          "name": "newOwner",
          "type": "address"
        }
      ],
      "name": "transferOwnership",
      "outputs": [],
      "stateMutability": "nonpayable",
      "type": "function"
    },
    {
      "inputs": [
        {
          "internalType": "uint256",
          "name": "",
          "type": "uint256"
        }
      ],
      "name": "troopToOwner",
      "outputs": [
        {
          "internalType": "address",
          "name": "",
          "type": "address"
        }
      ],
      "stateMutability": "view",
      "type": "function"
    },
    {
      "inputs": [
        {
          "internalType": "uint256",
          "name": "",
          "type": "uint256"
        }
      ],
      "name": "troops",
      "outputs": [
        {
          "internalType": "string",
          "name": "troopType",
          "type": "string"
        },
        {
          "internalType": "uint256",
          "name": "troopHealth",
          "type": "uint256"
        },
        {
          "internalType": "uint256",
          "name": "troopStrength",
          "type": "uint256"
        },
        {
          "internalType": "uint32",
          "name": "troopLevel",
          "type": "uint32"
        },
        {
          "internalType": "uint32",
          "name": "readyTime",
          "type": "uint32"
        },
        {
          "internalType": "bool",
          "name": "isLevelable",
          "type": "bool"
        }
      ],
      "stateMutability": "view",
      "type": "function"
    },
    {
      "inputs": [],
      "name": "withdraw",
      "outputs": [],
      "stateMutability": "nonpayable",
      "type": "function"
    }
  ],
  "bytecode": "0x60806040526201518060055566038d7ea4c68000600a5534801561002257600080fd5b50336000806101000a81548173ffffffffffffffffffffffffffffffffffffffff021916908373ffffffffffffffffffffffffffffffffffffffff16021790555060008054906101000a900473ffffffffffffffffffffffffffffffffffffffff1673ffffffffffffffffffffffffffffffffffffffff16600073ffffffffffffffffffffffffffffffffffffffff167f8be0079c531659141344cd1fd0a4f28419497f9722a3daafe3b4186f6b6457e060405160405180910390a3611275806100ed6000396000f3fe60806040526004361061009c5760003560e01c80638aaa9f6e116100645780638aaa9f6e1461016a5780638da5cb5b146101815780638f32d59b146101ac578063b11830a9146101d7578063ccf670f814610214578063f2fde38b1461023d5761009c565b80630ce90ec2146100a15780633084497b146100bd5780633ccfd60b146100ff5780634ad06ca314610116578063715018a614610153575b600080fd5b6100bb60048036038101906100b69190610ada565b610266565b005b3480156100c957600080fd5b506100e460048036038101906100df9190610ada565b6102db565b6040516100f696959493929190610be0565b60405180910390f35b34801561010b57600080fd5b506101146103dc565b005b34801561012257600080fd5b5061013d60048036038101906101389190610ca6565b610443565b60405161014a9190610d91565b60405180910390f35b34801561015f57600080fd5b5061016861058b565b005b34801561017657600080fd5b5061017f61065a565b005b34801561018d57600080fd5b506101966106ec565b6040516101a39190610dc2565b60405180910390f35b3480156101b857600080fd5b506101c1610715565b6040516101ce9190610ddd565b60405180910390f35b3480156101e357600080fd5b506101fe60048036038101906101f99190610ada565b61076c565b60405161020b9190610dc2565b60405180910390f35b34801561022057600080fd5b5061023b60048036038101906102369190610ada565b61079f565b005b34801561024957600080fd5b50610264600480360381019061025f9190610ca6565b6107ba565b005b600a54341461027457600080fd5b6007818154811061028857610287610df8565b5b9060005260206000209060040201600301600081819054906101000a900463ffffffff16809291906102b990610e56565b91906101000a81548163ffffffff021916908363ffffffff1602179055505050565b600781815481106102eb57600080fd5b906000526020600020906004020160009150905080600001805461030e90610eb1565b80601f016020809104026020016040519081016040528092919081815260200182805461033a90610eb1565b80156103875780601f1061035c57610100808354040283529160200191610387565b820191906000526020600020905b81548152906001019060200180831161036a57829003601f168201915b5050505050908060010154908060020154908060030160009054906101000a900463ffffffff16908060030160049054906101000a900463ffffffff16908060030160089054906101000a900460ff16905086565b6103e4610715565b6103ed57600080fd5b60006103f76106ec565b90508073ffffffffffffffffffffffffffffffffffffffff166108fc479081150290604051600060405180830381858888f1935050505015801561043f573d6000803e3d6000fd5b5050565b60606000600960008473ffffffffffffffffffffffffffffffffffffffff1673ffffffffffffffffffffffffffffffffffffffff1681526020019081526020016000205467ffffffffffffffff8111156104a05761049f610ee2565b5b6040519080825280602002602001820160405280156104ce5781602001602082028036833780820191505090505b509050600080600190505b600780549050811015610580578473ffffffffffffffffffffffffffffffffffffffff166008600083815260200190815260200160002060009054906101000a900473ffffffffffffffffffffffffffffffffffffffff1673ffffffffffffffffffffffffffffffffffffffff160361056d57808383815181106105605761055f610df8565b5b6020026020010181815250505b808061057890610f11565b9150506104d9565b508192505050919050565b610593610715565b61059c57600080fd5b600073ffffffffffffffffffffffffffffffffffffffff1660008054906101000a900473ffffffffffffffffffffffffffffffffffffffff1673ffffffffffffffffffffffffffffffffffffffff167f8be0079c531659141344cd1fd0a4f28419497f9722a3daafe3b4186f6b6457e060405160405180910390a360008060006101000a81548173ffffffffffffffffffffffffffffffffffffffff021916908373ffffffffffffffffffffffffffffffffffffffff160217905550565b6000600960003373ffffffffffffffffffffffffffffffffffffffff1673ffffffffffffffffffffffffffffffffffffffff16815260200190815260200160002054146106a657600080fd5b6106ea6040518060400160405280600981526020017f53776f7264736d616e0000000000000000000000000000000000000000000000815250600a806001806107d7565b565b60008060009054906101000a900473ffffffffffffffffffffffffffffffffffffffff16905090565b60008060009054906101000a900473ffffffffffffffffffffffffffffffffffffffff1673ffffffffffffffffffffffffffffffffffffffff163373ffffffffffffffffffffffffffffffffffffffff1614905090565b60086020528060005260406000206000915054906101000a900473ffffffffffffffffffffffffffffffffffffffff1681565b6107a7610715565b6107b057600080fd5b80600a8190555050565b6107c2610715565b6107cb57600080fd5b6107d4816109a9565b50565b60076040518060c001604052808781526020018681526020018581526020018463ffffffff168152602001600554426108109190610f59565b63ffffffff1681526020018315158152509080600181540180825580915050600190039060005260206000209060040201600090919091909150600082015181600001908161085f9190611139565b50602082015181600101556040820151816002015560608201518160030160006101000a81548163ffffffff021916908363ffffffff16021790555060808201518160030160046101000a81548163ffffffff021916908363ffffffff16021790555060a08201518160030160086101000a81548160ff0219169083151502179055505050600060016007805490506108f8919061120b565b9050336008600083815260200190815260200160002060006101000a81548173ffffffffffffffffffffffffffffffffffffffff021916908373ffffffffffffffffffffffffffffffffffffffff160217905550600960003373ffffffffffffffffffffffffffffffffffffffff1673ffffffffffffffffffffffffffffffffffffffff168152602001908152602001600020600081548092919061099c90610f11565b9190505550505050505050565b600073ffffffffffffffffffffffffffffffffffffffff168173ffffffffffffffffffffffffffffffffffffffff16036109e257600080fd5b8073ffffffffffffffffffffffffffffffffffffffff1660008054906101000a900473ffffffffffffffffffffffffffffffffffffffff1673ffffffffffffffffffffffffffffffffffffffff167f8be0079c531659141344cd1fd0a4f28419497f9722a3daafe3b4186f6b6457e060405160405180910390a3806000806101000a81548173ffffffffffffffffffffffffffffffffffffffff021916908373ffffffffffffffffffffffffffffffffffffffff16021790555050565b600080fd5b6000819050919050565b610ab781610aa4565b8114610ac257600080fd5b50565b600081359050610ad481610aae565b92915050565b600060208284031215610af057610aef610a9f565b5b6000610afe84828501610ac5565b91505092915050565b600081519050919050565b600082825260208201905092915050565b60005b83811015610b41578082015181840152602081019050610b26565b60008484015250505050565b6000601f19601f8301169050919050565b6000610b6982610b07565b610b738185610b12565b9350610b83818560208601610b23565b610b8c81610b4d565b840191505092915050565b610ba081610aa4565b82525050565b600063ffffffff82169050919050565b610bbf81610ba6565b82525050565b60008115159050919050565b610bda81610bc5565b82525050565b600060c0820190508181036000830152610bfa8189610b5e565b9050610c096020830188610b97565b610c166040830187610b97565b610c236060830186610bb6565b610c306080830185610bb6565b610c3d60a0830184610bd1565b979650505050505050565b600073ffffffffffffffffffffffffffffffffffffffff82169050919050565b6000610c7382610c48565b9050919050565b610c8381610c68565b8114610c8e57600080fd5b50565b600081359050610ca081610c7a565b92915050565b600060208284031215610cbc57610cbb610a9f565b5b6000610cca84828501610c91565b91505092915050565b600081519050919050565b600082825260208201905092915050565b6000819050602082019050919050565b610d0881610aa4565b82525050565b6000610d1a8383610cff565b60208301905092915050565b6000602082019050919050565b6000610d3e82610cd3565b610d488185610cde565b9350610d5383610cef565b8060005b83811015610d84578151610d6b8882610d0e565b9750610d7683610d26565b925050600181019050610d57565b5085935050505092915050565b60006020820190508181036000830152610dab8184610d33565b905092915050565b610dbc81610c68565b82525050565b6000602082019050610dd76000830184610db3565b92915050565b6000602082019050610df26000830184610bd1565b92915050565b7f4e487b7100000000000000000000000000000000000000000000000000000000600052603260045260246000fd5b7f4e487b7100000000000000000000000000000000000000000000000000000000600052601160045260246000fd5b6000610e6182610ba6565b915063ffffffff8203610e7757610e76610e27565b5b600182019050919050565b7f4e487b7100000000000000000000000000000000000000000000000000000000600052602260045260246000fd5b60006002820490506001821680610ec957607f821691505b602082108103610edc57610edb610e82565b5b50919050565b7f4e487b7100000000000000000000000000000000000000000000000000000000600052604160045260246000fd5b6000610f1c82610aa4565b91507fffffffffffffffffffffffffffffffffffffffffffffffffffffffffffffffff8203610f4e57610f4d610e27565b5b600182019050919050565b6000610f6482610aa4565b9150610f6f83610aa4565b9250828201905080821115610f8757610f86610e27565b5b92915050565b60008190508160005260206000209050919050565b60006020601f8301049050919050565b600082821b905092915050565b600060088302610fef7fffffffffffffffffffffffffffffffffffffffffffffffffffffffffffffffff82610fb2565b610ff98683610fb2565b95508019841693508086168417925050509392505050565b6000819050919050565b600061103661103161102c84610aa4565b611011565b610aa4565b9050919050565b6000819050919050565b6110508361101b565b61106461105c8261103d565b848454610fbf565b825550505050565b600090565b61107961106c565b611084818484611047565b505050565b5b818110156110a85761109d600082611071565b60018101905061108a565b5050565b601f8211156110ed576110be81610f8d565b6110c784610fa2565b810160208510156110d6578190505b6110ea6110e285610fa2565b830182611089565b50505b505050565b600082821c905092915050565b6000611110600019846008026110f2565b1980831691505092915050565b600061112983836110ff565b9150826002028217905092915050565b61114282610b07565b67ffffffffffffffff81111561115b5761115a610ee2565b5b6111658254610eb1565b6111708282856110ac565b600060209050601f8311600181146111a35760008415611191578287015190505b61119b858261111d565b865550611203565b601f1984166111b186610f8d565b60005b828110156111d9578489015182556001820191506020850194506020810190506111b4565b868310156111f657848901516111f2601f8916826110ff565b8355505b6001600288020188555050505b505050505050565b600061121682610aa4565b915061122183610aa4565b925082820390508181111561123957611238610e27565b5b9291505056fea2646970667358221220be89ef1d765b762bc9918cb134cc7f3da5049184256d5fa639434c09b7b1f5c564736f6c63430008130033",
  "linkReferences": {},
  "deployedLinkReferences": {}
}