{
  "_format": "hh-sol-artifact-1",
  "contractName": "TroopHelper",
  "sourceName": "contracts/TroopHelper.sol",
  "abi": [
    {
      "anonymous": false,
      "inputs": [
        {
          "indexed": true,
          "internalType": "address",
          "name": "previousOwner",
          "type": "address"
        },
        {
          "indexed": true,
          "internalType": "address",
          "name": "newOwner",
          "type": "address"
        }
      ],
      "name": "OwnershipTransferred",
      "type": "event"
    },
    {
      "anonymous": false,
      "inputs": [
        {
          "indexed": false,
          "internalType": "uint256",
          "name": "_troopLevel",
          "type": "uint256"
        },
        {
          "indexed": false,
          "internalType": "string",
          "name": "_troopName",
          "type": "string"
        },
        {
          "indexed": false,
          "internalType": "uint256",
          "name": "_troopHealth",
          "type": "uint256"
        },
        {
          "indexed": false,
          "internalType": "uint256",
          "name": "_troopStrength",
          "type": "uint256"
        },
        {
          "indexed": false,
          "internalType": "bool",
          "name": "",
          "type": "bool"
        }
      ],
      "name": "newTroop",
      "type": "event"
    },
    {
      "inputs": [],
      "name": "createInitialTroop",
      "outputs": [],
      "stateMutability": "nonpayable",
      "type": "function"
    },
    {
      "inputs": [
        {
          "internalType": "address",
          "name": "_owner",
          "type": "address"
        }
      ],
      "name": "getTroopsByOwner",
      "outputs": [
        {
          "internalType": "uint256[]",
          "name": "",
          "type": "uint256[]"
        }
      ],
      "stateMutability": "view",
      "type": "function"
    },
    {
      "inputs": [],
      "name": "isOwner",
      "outputs": [
        {
          "internalType": "bool",
          "name": "",
          "type": "bool"
        }
      ],
      "stateMutability": "view",
      "type": "function"
    },
    {
      "inputs": [
        {
          "internalType": "uint256",
          "name": "_troopId",
          "type": "uint256"
        }
      ],
      "name": "levelUp",
      "outputs": [],
      "stateMutability": "payable",
      "type": "function"
    },
    {
      "inputs": [],
      "name": "owner",
      "outputs": [
        {
          "internalType": "address",
          "name": "",
          "type": "address"
        }
      ],
      "stateMutability": "view",
      "type": "function"
    },
    {
      "inputs": [],
      "name": "renounceOwnership",
      "outputs": [],
      "stateMutability": "nonpayable",
      "type": "function"
    },
    {
      "inputs": [
        {
          "internalType": "address",
          "name": "newOwner",
          "type": "address"
        }
      ],
      "name": "transferOwnership",
      "outputs": [],
      "stateMutability": "nonpayable",
      "type": "function"
    },
    {
      "inputs": [
        {
          "internalType": "uint256",
          "name": "",
          "type": "uint256"
        }
      ],
      "name": "troopToOwner",
      "outputs": [
        {
          "internalType": "address",
          "name": "",
          "type": "address"
        }
      ],
      "stateMutability": "view",
      "type": "function"
    },
    {
      "inputs": [
        {
          "internalType": "uint256",
          "name": "",
          "type": "uint256"
        }
      ],
      "name": "troops",
      "outputs": [
        {
          "internalType": "string",
          "name": "troopType",
          "type": "string"
        },
        {
          "internalType": "uint256",
          "name": "troopHealth",
          "type": "uint256"
        },
        {
          "internalType": "uint256",
          "name": "troopStrength",
          "type": "uint256"
        },
        {
          "internalType": "uint32",
          "name": "troopLevel",
          "type": "uint32"
        },
        {
          "internalType": "uint32",
          "name": "readyTime",
          "type": "uint32"
        },
        {
          "internalType": "bool",
          "name": "isLevelable",
          "type": "bool"
        }
      ],
      "stateMutability": "view",
      "type": "function"
    },
    {
      "inputs": [],
      "name": "withdraw",
      "outputs": [],
      "stateMutability": "nonpayable",
      "type": "function"
    }
  ],
  "bytecode": "0x60806040526201518060055566038d7ea4c68000600a5534801561002257600080fd5b50336000806101000a81548173ffffffffffffffffffffffffffffffffffffffff021916908373ffffffffffffffffffffffffffffffffffffffff16021790555060008054906101000a900473ffffffffffffffffffffffffffffffffffffffff1673ffffffffffffffffffffffffffffffffffffffff16600073ffffffffffffffffffffffffffffffffffffffff167f8be0079c531659141344cd1fd0a4f28419497f9722a3daafe3b4186f6b6457e060405160405180910390a3611226806100ed6000396000f3fe6080604052600436106100915760003560e01c80638aaa9f6e116100595780638aaa9f6e1461015f5780638da5cb5b146101765780638f32d59b146101a1578063b11830a9146101cc578063f2fde38b1461020957610091565b80630ce90ec2146100965780633084497b146100b25780633ccfd60b146100f45780634ad06ca31461010b578063715018a614610148575b600080fd5b6100b060048036038101906100ab9190610a8b565b610232565b005b3480156100be57600080fd5b506100d960048036038101906100d49190610a8b565b6102a7565b6040516100eb96959493929190610b91565b60405180910390f35b34801561010057600080fd5b506101096103a8565b005b34801561011757600080fd5b50610132600480360381019061012d9190610c57565b61040f565b60405161013f9190610d42565b60405180910390f35b34801561015457600080fd5b5061015d610557565b005b34801561016b57600080fd5b50610174610626565b005b34801561018257600080fd5b5061018b6106b8565b6040516101989190610d73565b60405180910390f35b3480156101ad57600080fd5b506101b66106e1565b6040516101c39190610d8e565b60405180910390f35b3480156101d857600080fd5b506101f360048036038101906101ee9190610a8b565b610738565b6040516102009190610d73565b60405180910390f35b34801561021557600080fd5b50610230600480360381019061022b9190610c57565b61076b565b005b600a54341461024057600080fd5b6007818154811061025457610253610da9565b5b9060005260206000209060040201600301600081819054906101000a900463ffffffff168092919061028590610e07565b91906101000a81548163ffffffff021916908363ffffffff1602179055505050565b600781815481106102b757600080fd5b90600052602060002090600402016000915090508060000180546102da90610e62565b80601f016020809104026020016040519081016040528092919081815260200182805461030690610e62565b80156103535780601f1061032857610100808354040283529160200191610353565b820191906000526020600020905b81548152906001019060200180831161033657829003601f168201915b5050505050908060010154908060020154908060030160009054906101000a900463ffffffff16908060030160049054906101000a900463ffffffff16908060030160089054906101000a900460ff16905086565b6103b06106e1565b6103b957600080fd5b60006103c36106b8565b90508073ffffffffffffffffffffffffffffffffffffffff166108fc479081150290604051600060405180830381858888f1935050505015801561040b573d6000803e3d6000fd5b5050565b60606000600960008473ffffffffffffffffffffffffffffffffffffffff1673ffffffffffffffffffffffffffffffffffffffff1681526020019081526020016000205467ffffffffffffffff81111561046c5761046b610e93565b5b60405190808252806020026020018201604052801561049a5781602001602082028036833780820191505090505b509050600080600190505b60078054905081101561054c578473ffffffffffffffffffffffffffffffffffffffff166008600083815260200190815260200160002060009054906101000a900473ffffffffffffffffffffffffffffffffffffffff1673ffffffffffffffffffffffffffffffffffffffff1603610539578083838151811061052c5761052b610da9565b5b6020026020010181815250505b808061054490610ec2565b9150506104a5565b508192505050919050565b61055f6106e1565b61056857600080fd5b600073ffffffffffffffffffffffffffffffffffffffff1660008054906101000a900473ffffffffffffffffffffffffffffffffffffffff1673ffffffffffffffffffffffffffffffffffffffff167f8be0079c531659141344cd1fd0a4f28419497f9722a3daafe3b4186f6b6457e060405160405180910390a360008060006101000a81548173ffffffffffffffffffffffffffffffffffffffff021916908373ffffffffffffffffffffffffffffffffffffffff160217905550565b6000600960003373ffffffffffffffffffffffffffffffffffffffff1673ffffffffffffffffffffffffffffffffffffffff168152602001908152602001600020541461067257600080fd5b6106b66040518060400160405280600981526020017f53776f7264736d616e0000000000000000000000000000000000000000000000815250600a80600180610788565b565b60008060009054906101000a900473ffffffffffffffffffffffffffffffffffffffff16905090565b60008060009054906101000a900473ffffffffffffffffffffffffffffffffffffffff1673ffffffffffffffffffffffffffffffffffffffff163373ffffffffffffffffffffffffffffffffffffffff1614905090565b60086020528060005260406000206000915054906101000a900473ffffffffffffffffffffffffffffffffffffffff1681565b6107736106e1565b61077c57600080fd5b6107858161095a565b50565b60076040518060c001604052808781526020018681526020018581526020018463ffffffff168152602001600554426107c19190610f0a565b63ffffffff1681526020018315158152509080600181540180825580915050600190039060005260206000209060040201600090919091909150600082015181600001908161081091906110ea565b50602082015181600101556040820151816002015560608201518160030160006101000a81548163ffffffff021916908363ffffffff16021790555060808201518160030160046101000a81548163ffffffff021916908363ffffffff16021790555060a08201518160030160086101000a81548160ff0219169083151502179055505050600060016007805490506108a991906111bc565b9050336008600083815260200190815260200160002060006101000a81548173ffffffffffffffffffffffffffffffffffffffff021916908373ffffffffffffffffffffffffffffffffffffffff160217905550600960003373ffffffffffffffffffffffffffffffffffffffff1673ffffffffffffffffffffffffffffffffffffffff168152602001908152602001600020600081548092919061094d90610ec2565b9190505550505050505050565b600073ffffffffffffffffffffffffffffffffffffffff168173ffffffffffffffffffffffffffffffffffffffff160361099357600080fd5b8073ffffffffffffffffffffffffffffffffffffffff1660008054906101000a900473ffffffffffffffffffffffffffffffffffffffff1673ffffffffffffffffffffffffffffffffffffffff167f8be0079c531659141344cd1fd0a4f28419497f9722a3daafe3b4186f6b6457e060405160405180910390a3806000806101000a81548173ffffffffffffffffffffffffffffffffffffffff021916908373ffffffffffffffffffffffffffffffffffffffff16021790555050565b600080fd5b6000819050919050565b610a6881610a55565b8114610a7357600080fd5b50565b600081359050610a8581610a5f565b92915050565b600060208284031215610aa157610aa0610a50565b5b6000610aaf84828501610a76565b91505092915050565b600081519050919050565b600082825260208201905092915050565b60005b83811015610af2578082015181840152602081019050610ad7565b60008484015250505050565b6000601f19601f8301169050919050565b6000610b1a82610ab8565b610b248185610ac3565b9350610b34818560208601610ad4565b610b3d81610afe565b840191505092915050565b610b5181610a55565b82525050565b600063ffffffff82169050919050565b610b7081610b57565b82525050565b60008115159050919050565b610b8b81610b76565b82525050565b600060c0820190508181036000830152610bab8189610b0f565b9050610bba6020830188610b48565b610bc76040830187610b48565b610bd46060830186610b67565b610be16080830185610b67565b610bee60a0830184610b82565b979650505050505050565b600073ffffffffffffffffffffffffffffffffffffffff82169050919050565b6000610c2482610bf9565b9050919050565b610c3481610c19565b8114610c3f57600080fd5b50565b600081359050610c5181610c2b565b92915050565b600060208284031215610c6d57610c6c610a50565b5b6000610c7b84828501610c42565b91505092915050565b600081519050919050565b600082825260208201905092915050565b6000819050602082019050919050565b610cb981610a55565b82525050565b6000610ccb8383610cb0565b60208301905092915050565b6000602082019050919050565b6000610cef82610c84565b610cf98185610c8f565b9350610d0483610ca0565b8060005b83811015610d35578151610d1c8882610cbf565b9750610d2783610cd7565b925050600181019050610d08565b5085935050505092915050565b60006020820190508181036000830152610d5c8184610ce4565b905092915050565b610d6d81610c19565b82525050565b6000602082019050610d886000830184610d64565b92915050565b6000602082019050610da36000830184610b82565b92915050565b7f4e487b7100000000000000000000000000000000000000000000000000000000600052603260045260246000fd5b7f4e487b7100000000000000000000000000000000000000000000000000000000600052601160045260246000fd5b6000610e1282610b57565b915063ffffffff8203610e2857610e27610dd8565b5b600182019050919050565b7f4e487b7100000000000000000000000000000000000000000000000000000000600052602260045260246000fd5b60006002820490506001821680610e7a57607f821691505b602082108103610e8d57610e8c610e33565b5b50919050565b7f4e487b7100000000000000000000000000000000000000000000000000000000600052604160045260246000fd5b6000610ecd82610a55565b91507fffffffffffffffffffffffffffffffffffffffffffffffffffffffffffffffff8203610eff57610efe610dd8565b5b600182019050919050565b6000610f1582610a55565b9150610f2083610a55565b9250828201905080821115610f3857610f37610dd8565b5b92915050565b60008190508160005260206000209050919050565b60006020601f8301049050919050565b600082821b905092915050565b600060088302610fa07fffffffffffffffffffffffffffffffffffffffffffffffffffffffffffffffff82610f63565b610faa8683610f63565b95508019841693508086168417925050509392505050565b6000819050919050565b6000610fe7610fe2610fdd84610a55565b610fc2565b610a55565b9050919050565b6000819050919050565b61100183610fcc565b61101561100d82610fee565b848454610f70565b825550505050565b600090565b61102a61101d565b611035818484610ff8565b505050565b5b818110156110595761104e600082611022565b60018101905061103b565b5050565b601f82111561109e5761106f81610f3e565b61107884610f53565b81016020851015611087578190505b61109b61109385610f53565b83018261103a565b50505b505050565b600082821c905092915050565b60006110c1600019846008026110a3565b1980831691505092915050565b60006110da83836110b0565b9150826002028217905092915050565b6110f382610ab8565b67ffffffffffffffff81111561110c5761110b610e93565b5b6111168254610e62565b61112182828561105d565b600060209050601f8311600181146111545760008415611142578287015190505b61114c85826110ce565b8655506111b4565b601f19841661116286610f3e565b60005b8281101561118a57848901518255600182019150602085019450602081019050611165565b868310156111a757848901516111a3601f8916826110b0565b8355505b6001600288020188555050505b505050505050565b60006111c782610a55565b91506111d283610a55565b92508282039050818111156111ea576111e9610dd8565b5b9291505056fea26469706673582212200a57efd6d786605f229bf93c298ac84a605afe9eb73b4986c6c899741956fd4564736f6c63430008130033",
  "linkReferences": {},
  "deployedLinkReferences": {}
}